:100000000C945D000C9485000C9485000C94850084
:100010000C9485000C9485000C9485000C9485004C
:100020000C9485000C9485000C9485000C9485003C
:100030000C9485000C9485000C9485000C9485002C
:100040000C94F7020C9485000C9467030C94410304
:100050000C9485000C9485000C9485000C9485000C
:100060000C9485000C94850000000008000201003B
:100070000003040700000000000000000000000072
:10008000250028002B0000000000240027002A0083
:10009000040404040404040402020202020203032E
:1000A0000303030301020408102040800102040836
:1000B0001020010204081020530411241FBECFEFAA
:1000C000D8E0DEBFCDBF21E0A2E1B1E001C01D92CA
:1000D000AE3BB207E1F711E0A0E0B1E0E4E4F9E003
:1000E00002C005900D92A231B107D9F710E0CDE51D
:1000F000D0E004C02197FE010E949A04CC35D107BC
:10010000C9F70E9499030C94A0040C94000090E09D
:10011000FC01EC55FF4F249180579F4FFC018491C7
:10012000882399F090E0880F991FFC01EA57FF4F50
:10013000A591B491FC01E458FF4F859194918FB73C
:10014000F894EC91E22BEC938FBF0895AF92BF929D
:10015000CF92DF92EF92FF920F931F93CF93DF9393
:100160006C017B018B01040F151FEB015E01AE18C2
:10017000BF08C017D10759F06991D601ED91FC91E4
:100180000190F081E02DC6010995892B79F7C50111
:10019000DF91CF911F910F91FF90EF90DF90CF9063
:1001A000BF90AF900895FC01538D448D252F30E012
:1001B000842F90E0821B930B541710F0CF96089574
:1001C00001970895FC01918D828D981761F0A28DA1
:1001D000AE0FBF2FB11D5D968C91928D9F5F9F7367
:1001E000928F90E008958FEF9FEF0895FC01918D1D
:1001F000828D981731F0828DE80FF11D858D90E08A
:1002000008958FEF9FEF08952FB7F89480911D0107
:1002100090911E01A0911F01B09120012FBF8093EA
:10022000290190932A01A0932B01B0932C0181E224
:1002300091E00E94F60097FF26C02FB7F8948091B6
:100240001D0190911E01A0911F01B09120012FBFAF
:100250004091290150912A0160912B0170912C014C
:10026000841B950BA60BB70B4091250150912601DD
:10027000609127017091280184179507A607B70799
:10028000B0F28FEF9FEF0895CF92DF92EF92FF923F
:10029000CF930E940401FC0197FD4EC08D32910561
:1002A00021F0C0970A9708F040C0C12CD12C7601EC
:1002B000C0E0E130F105D1F0ED32F105D9F1CF0127
:1002C000C0970A9798F4AAE0B0E0A70196010E94AF
:1002D00080046F01FF0FEE08FF08C60ED71EE81E50
:1002E000F91E80E3C81AD108E108F10881E291E023
:1002F0000E94E2000E940401FC01C0970A97C8F224
:10030000E130F105B1F2CC2341F0F094E094D094C7
:10031000C094C11CD11CE11CF11CC701B601CF91D6
:10032000FF90EF90DF90CF90089581E291E00E94DE
:10033000E200AFCFC1E0DACFC12CD12C7601EDCFF6
:10034000FC01918D228D892F90E0805C9F4F821B54
:1003500091098F739927089581E291E00E94A0018D
:1003600021E0892B09F420E0822F089580E090E0BD
:10037000892B29F00E94AC0181110C940000089592
:10038000FC01A48DA80FB92FB11DA35ABF4F2C910A
:10039000848D90E001968F739927848FA689B78901
:1003A0002C93A089B1898C91837080648C93938DF8
:1003B000848D981306C00288F389E02D80818F7D9B
:1003C00080830895EF92FF920F931F93CF93DF9353
:1003D000EC0181E0888F9B8D8C8D98131AC0E88981
:1003E000F989808185FF15C09FB7F894EE89FF8950
:1003F0006083E889F98980818370806480839FBFEE
:1004000081E090E0DF91CF911F910F91FF90EF90ED
:100410000895F62E0B8D10E00F5F1F4F0F731127FD
:10042000E02E8C8D8E110CC00FB607FCFACFE88938
:10043000F989808185FFF5CFCE010E94C001F1CFFF
:10044000EB8DEC0FFD2FF11DE35AFF4FF0829FB7AC
:10045000F8940B8FEA89FB8980818062CFCFCF939C
:10046000DF93EC01888D8823B9F0AA89BB89E889DC
:10047000F9898C9185FD03C0808186FD0DC00FB682
:1004800007FCF7CF8C9185FFF2CF808185FFEDCF00
:10049000CE010E94C001E9CFDF91CF91089590E095
:1004A000FC01E859FF4F2491FC01EC55FF4F3491BA
:1004B000FC01E057FF4FE491EE23C9F0222339F00D
:1004C000233001F1A8F4213019F1223029F1F0E0B4
:1004D000EE0FFF1FE458FF4FA591B4918FB7F8942A
:1004E000EC91611126C030953E233C938FBF089557
:1004F0002730A9F02830C9F0243049F780918000D6
:100500008F7D03C0809180008F7780938000DFCF44
:1005100084B58F7784BDDBCF84B58F7DFBCF809191
:10052000B0008F778093B000D2CF8091B0008F7DE4
:10053000F9CF3E2BDACF1F93CF93DF93182FEB0128
:100540000E948700209739F460E0812FDF91CF91DE
:100550001F910C944F02CF3FD10511F461E0F5CF0C
:10056000E12FF0E0E859FF4FE491E33031F140F43E
:10057000E130B1F0E230E1F0C038D1057CF7E4CFF2
:10058000E73029F1E83059F1E430B1F7809180008B
:10059000806280938000D0938B00C0938A0004C057
:1005A00084B5806884BDC7BDDF91CF911F91089548
:1005B00084B5806284BDC8BDF7CF8091800080681B
:1005C00080938000D0938900C0938800EDCF809104
:1005D000B00080688093B000C093B300E5CF8091F5
:1005E000B00080628093B000C093B400DDCF1F9252
:1005F0000F920FB60F9211242F933F938F939F93D7
:10060000AF93BF9380911D0190911E01A0911F0196
:10061000B091200130911C0123E0230F2D3758F5B4
:100620000196A11DB11D20931C0180931D01909383
:100630001E01A0931F01B093200180911801909199
:100640001901A0911A01B0911B010196A11DB11DC4
:100650008093180190931901A0931A01B0931B0184
:10066000BF91AF919F918F913F912F910F900FBEAE
:100670000F901F90189526E8230F0296A11DB11D1B
:10068000D2CF1F920F920FB60F9211242F933F9348
:100690004F935F936F937F938F939F93AF93BF938A
:1006A000EF93FF9381E291E00E94C001FF91EF91EF
:1006B000BF91AF919F918F917F916F915F914F917A
:1006C0003F912F910F900FBE0F901F9018951F9282
:1006D0000F920FB60F9211242F938F939F93EF9346
:1006E000FF93E0913101F09132018081E091370177
:1006F000F091380182FD1BC0908180913A018F5F9B
:100700008F7320913B01821741F0E0913A01F0E0B4
:10071000EF5DFE4F958F80933A01FF91EF919F918E
:100720008F912F910F900FBE0F901F901895808181
:10073000F4CF789484B5826084BD84B5816084BD33
:1007400085B5826085BD85B5816085BD80916E006F
:10075000816080936E0010928100809181008260A0
:1007600080938100809181008160809381008091DD
:1007700080008160809380008091B10084608093CC
:10078000B1008091B00081608093B00080917A00C8
:10079000846080937A0080917A00826080937A00EE
:1007A00080917A00816080937A0080917A008068DD
:1007B00080937A001092C100E0913101F0913201F2
:1007C00082E08083E0912D01F0912E011082E09172
:1007D0002F01F09130018FEC808310923901E0916C
:1007E0003501F091360186E08083E0913301F0918C
:1007F0003401808180618083E0913301F091340184
:10080000808188608083E0913301F09134018081A0
:1008100080688083E0913301F091340180818F7D85
:10082000808389E00E9487008AE00E9487008BE035
:100830000E948700C0E0D0E081E291E00E94A00128
:10084000892B99F00E94440170931701609316015F
:100850000E94440170931501609314010E944401A9
:100860007093130160931201E7CF609116017091AC
:10087000170189E00E949B0260911401709115019B
:100880008AE00E949B0260911201709113018BE03B
:100890000E949B02209781F20E94AC01882361F2A2
:1008A0000E940000C9CFE1E2F1E01382128288EEDB
:1008B00093E0A0E0B0E084839583A683B78384E0CF
:1008C00091E09183808385EC90E09587848784EC28
:1008D00090E09787868780EC90E0918B808B81EC0D
:1008E00090E0938B828B82EC90E0958B848B86ECEE
:1008F00090E0978B868B118E128E138E148E089536
:100900000E948B04A59F900DB49F900DA49F800D15
:10091000911D11240895A29FB001B39FC001A39F10
:10092000700D811D1124911DB29F700D811D112428
:10093000911D0895EE0FFF1F0590F491E02D09948D
:04094000F894FFCF59
:1009440000000000E201A600D3002F02A001E20093
:02095400F600AB
:00000001FF
